{
  "_format": "hh-sol-artifact-1",
  "contractName": "RewardPool",
  "sourceName": "contracts/RewardPool.sol",
  "abi": [
    {
      "inputs": [],
      "stateMutability": "nonpayable",
      "type": "constructor"
    },
    {
      "inputs": [],
      "name": "AccessControlBadConfirmation",
      "type": "error"
    },
    {
      "inputs": [
        {
          "internalType": "address",
          "name": "account",
          "type": "address"
        },
        {
          "internalType": "bytes32",
          "name": "neededRole",
          "type": "bytes32"
        }
      ],
      "name": "AccessControlUnauthorizedAccount",
      "type": "error"
    },
    {
      "inputs": [
        {
          "internalType": "address",
          "name": "target",
          "type": "address"
        }
      ],
      "name": "AddressEmptyCode",
      "type": "error"
    },
    {
      "inputs": [],
      "name": "DistributorNotSet",
      "type": "error"
    },
    {
      "inputs": [
        {
          "internalType": "address",
          "name": "implementation",
          "type": "address"
        }
      ],
      "name": "ERC1967InvalidImplementation",
      "type": "error"
    },
    {
      "inputs": [],
      "name": "ERC1967NonPayable",
      "type": "error"
    },
    {
      "inputs": [],
      "name": "FailedCall",
      "type": "error"
    },
    {
      "inputs": [],
      "name": "InsufficientBalance",
      "type": "error"
    },
    {
      "inputs": [],
      "name": "InvalidAmount",
      "type": "error"
    },
    {
      "inputs": [],
      "name": "InvalidInitialization",
      "type": "error"
    },
    {
      "inputs": [],
      "name": "NotInitializing",
      "type": "error"
    },
    {
      "inputs": [
        {
          "internalType": "address",
          "name": "token",
          "type": "address"
        }
      ],
      "name": "SafeERC20FailedOperation",
      "type": "error"
    },
    {
      "inputs": [],
      "name": "UUPSUnauthorizedCallContext",
      "type": "error"
    },
    {
      "inputs": [
        {
          "internalType": "bytes32",
          "name": "slot",
          "type": "bytes32"
        }
      ],
      "name": "UUPSUnsupportedProxiableUUID",
      "type": "error"
    },
    {
      "inputs": [],
      "name": "Unauthorized",
      "type": "error"
    },
    {
      "anonymous": false,
      "inputs": [
        {
          "indexed": true,
          "internalType": "address",
          "name": "token",
          "type": "address"
        },
        {
          "indexed": false,
          "internalType": "uint256",
          "name": "amount",
          "type": "uint256"
        }
      ],
      "name": "Deposited",
      "type": "event"
    },
    {
      "anonymous": false,
      "inputs": [
        {
          "indexed": true,
          "internalType": "address",
          "name": "oldDistributor",
          "type": "address"
        },
        {
          "indexed": true,
          "internalType": "address",
          "name": "newDistributor",
          "type": "address"
        }
      ],
      "name": "DistributorSet",
      "type": "event"
    },
    {
      "anonymous": false,
      "inputs": [
        {
          "indexed": false,
          "internalType": "uint64",
          "name": "version",
          "type": "uint64"
        }
      ],
      "name": "Initialized",
      "type": "event"
    },
    {
      "anonymous": false,
      "inputs": [
        {
          "indexed": true,
          "internalType": "address",
          "name": "token",
          "type": "address"
        },
        {
          "indexed": true,
          "internalType": "address",
          "name": "to",
          "type": "address"
        },
        {
          "indexed": false,
          "internalType": "uint256",
          "name": "amount",
          "type": "uint256"
        }
      ],
      "name": "Paid",
      "type": "event"
    },
    {
      "anonymous": false,
      "inputs": [
        {
          "indexed": true,
          "internalType": "bytes32",
          "name": "role",
          "type": "bytes32"
        },
        {
          "indexed": true,
          "internalType": "bytes32",
          "name": "previousAdminRole",
          "type": "bytes32"
        },
        {
          "indexed": true,
          "internalType": "bytes32",
          "name": "newAdminRole",
          "type": "bytes32"
        }
      ],
      "name": "RoleAdminChanged",
      "type": "event"
    },
    {
      "anonymous": false,
      "inputs": [
        {
          "indexed": true,
          "internalType": "bytes32",
          "name": "role",
          "type": "bytes32"
        },
        {
          "indexed": true,
          "internalType": "address",
          "name": "account",
          "type": "address"
        },
        {
          "indexed": true,
          "internalType": "address",
          "name": "sender",
          "type": "address"
        }
      ],
      "name": "RoleGranted",
      "type": "event"
    },
    {
      "anonymous": false,
      "inputs": [
        {
          "indexed": true,
          "internalType": "bytes32",
          "name": "role",
          "type": "bytes32"
        },
        {
          "indexed": true,
          "internalType": "address",
          "name": "account",
          "type": "address"
        },
        {
          "indexed": true,
          "internalType": "address",
          "name": "sender",
          "type": "address"
        }
      ],
      "name": "RoleRevoked",
      "type": "event"
    },
    {
      "anonymous": false,
      "inputs": [
        {
          "indexed": true,
          "internalType": "address",
          "name": "implementation",
          "type": "address"
        }
      ],
      "name": "Upgraded",
      "type": "event"
    },
    {
      "inputs": [],
      "name": "DEFAULT_ADMIN_ROLE",
      "outputs": [
        {
          "internalType": "bytes32",
          "name": "",
          "type": "bytes32"
        }
      ],
      "stateMutability": "view",
      "type": "function"
    },
    {
      "inputs": [],
      "name": "DISTRIBUTOR_ROLE",
      "outputs": [
        {
          "internalType": "bytes32",
          "name": "",
          "type": "bytes32"
        }
      ],
      "stateMutability": "view",
      "type": "function"
    },
    {
      "inputs": [],
      "name": "PAUSER_ROLE",
      "outputs": [
        {
          "internalType": "bytes32",
          "name": "",
          "type": "bytes32"
        }
      ],
      "stateMutability": "view",
      "type": "function"
    },
    {
      "inputs": [],
      "name": "UPGRADE_INTERFACE_VERSION",
      "outputs": [
        {
          "internalType": "string",
          "name": "",
          "type": "string"
        }
      ],
      "stateMutability": "view",
      "type": "function"
    },
    {
      "inputs": [
        {
          "internalType": "address",
          "name": "token",
          "type": "address"
        }
      ],
      "name": "balance",
      "outputs": [
        {
          "internalType": "uint256",
          "name": "",
          "type": "uint256"
        }
      ],
      "stateMutability": "view",
      "type": "function"
    },
    {
      "inputs": [
        {
          "internalType": "address",
          "name": "token",
          "type": "address"
        },
        {
          "internalType": "uint256",
          "name": "amount",
          "type": "uint256"
        }
      ],
      "name": "deposit",
      "outputs": [],
      "stateMutability": "nonpayable",
      "type": "function"
    },
    {
      "inputs": [],
      "name": "distributor",
      "outputs": [
        {
          "internalType": "address",
          "name": "",
          "type": "address"
        }
      ],
      "stateMutability": "view",
      "type": "function"
    },
    {
      "inputs": [
        {
          "internalType": "bytes32",
          "name": "role",
          "type": "bytes32"
        }
      ],
      "name": "getRoleAdmin",
      "outputs": [
        {
          "internalType": "bytes32",
          "name": "",
          "type": "bytes32"
        }
      ],
      "stateMutability": "view",
      "type": "function"
    },
    {
      "inputs": [
        {
          "internalType": "bytes32",
          "name": "role",
          "type": "bytes32"
        },
        {
          "internalType": "address",
          "name": "account",
          "type": "address"
        }
      ],
      "name": "grantRole",
      "outputs": [],
      "stateMutability": "nonpayable",
      "type": "function"
    },
    {
      "inputs": [
        {
          "internalType": "bytes32",
          "name": "role",
          "type": "bytes32"
        },
        {
          "internalType": "address",
          "name": "account",
          "type": "address"
        }
      ],
      "name": "hasRole",
      "outputs": [
        {
          "internalType": "bool",
          "name": "",
          "type": "bool"
        }
      ],
      "stateMutability": "view",
      "type": "function"
    },
    {
      "inputs": [
        {
          "internalType": "address",
          "name": "admin",
          "type": "address"
        }
      ],
      "name": "initialize",
      "outputs": [],
      "stateMutability": "nonpayable",
      "type": "function"
    },
    {
      "inputs": [
        {
          "internalType": "address",
          "name": "token",
          "type": "address"
        },
        {
          "internalType": "address",
          "name": "to",
          "type": "address"
        },
        {
          "internalType": "uint256",
          "name": "amount",
          "type": "uint256"
        }
      ],
      "name": "payTo",
      "outputs": [],
      "stateMutability": "nonpayable",
      "type": "function"
    },
    {
      "inputs": [],
      "name": "proxiableUUID",
      "outputs": [
        {
          "internalType": "bytes32",
          "name": "",
          "type": "bytes32"
        }
      ],
      "stateMutability": "view",
      "type": "function"
    },
    {
      "inputs": [
        {
          "internalType": "bytes32",
          "name": "role",
          "type": "bytes32"
        },
        {
          "internalType": "address",
          "name": "callerConfirmation",
          "type": "address"
        }
      ],
      "name": "renounceRole",
      "outputs": [],
      "stateMutability": "nonpayable",
      "type": "function"
    },
    {
      "inputs": [
        {
          "internalType": "bytes32",
          "name": "role",
          "type": "bytes32"
        },
        {
          "internalType": "address",
          "name": "account",
          "type": "address"
        }
      ],
      "name": "revokeRole",
      "outputs": [],
      "stateMutability": "nonpayable",
      "type": "function"
    },
    {
      "inputs": [
        {
          "internalType": "address",
          "name": "newDistributor",
          "type": "address"
        }
      ],
      "name": "setDistributor",
      "outputs": [],
      "stateMutability": "nonpayable",
      "type": "function"
    },
    {
      "inputs": [
        {
          "internalType": "bytes4",
          "name": "interfaceId",
          "type": "bytes4"
        }
      ],
      "name": "supportsInterface",
      "outputs": [
        {
          "internalType": "bool",
          "name": "",
          "type": "bool"
        }
      ],
      "stateMutability": "view",
      "type": "function"
    },
    {
      "inputs": [
        {
          "internalType": "address",
          "name": "",
          "type": "address"
        }
      ],
      "name": "tokenBalances",
      "outputs": [
        {
          "internalType": "uint256",
          "name": "",
          "type": "uint256"
        }
      ],
      "stateMutability": "view",
      "type": "function"
    },
    {
      "inputs": [
        {
          "internalType": "address",
          "name": "newImplementation",
          "type": "address"
        },
        {
          "internalType": "bytes",
          "name": "data",
          "type": "bytes"
        }
      ],
      "name": "upgradeToAndCall",
      "outputs": [],
      "stateMutability": "payable",
      "type": "function"
    }
  ],
  "bytecode": "0x60a06040523060805234801561001457600080fd5b5061001d610022565b6100d4565b7ff0c57e16840df040f15088dc2f81fe391c3923bec73e23a9662efc9c229c6a00805468010000000000000000900460ff16156100725760405163f92ee8a960e01b815260040160405180910390fd5b80546001600160401b03908116146100d15780546001600160401b0319166001600160401b0390811782556040519081527fc7f505b2f371ae2175ee4913f4499e1f2633a7b5936321eed1cdaeb6115181d29060200160405180910390a15b50565b6080516112cb6100fd60003960008181610ae601528181610b0f0152610c5a01526112cb6000f3fe6080604052600436106101145760003560e01c806375619ab5116100a0578063c4d66de811610064578063c4d66de81461031e578063d547741f1461033e578063e3d670d71461035e578063e63ab1e914610394578063f0bd87cc146103c857600080fd5b806375619ab51461025357806391d1485414610273578063a217fddf14610293578063ad3cb1cc146102a8578063bfe10928146102e657600080fd5b80634026cf23116100e75780634026cf23146101be57806347e7ef24146101de5780634f1ef286146101fe578063523fba7f1461021157806352d1902d1461023e57600080fd5b806301ffc9a714610119578063248a9ca31461014e5780632f2ff15d1461017c57806336568abe1461019e575b600080fd5b34801561012557600080fd5b50610139610134366004610f89565b6103ea565b60405190151581526020015b60405180910390f35b34801561015a57600080fd5b5061016e610169366004610fb3565b610421565b604051908152602001610145565b34801561018857600080fd5b5061019c610197366004610fe8565b610443565b005b3480156101aa57600080fd5b5061019c6101b9366004610fe8565b610465565b3480156101ca57600080fd5b5061019c6101d9366004611014565b61049d565b3480156101ea57600080fd5b5061019c6101f9366004611050565b6105cb565b61019c61020c366004611090565b61067c565b34801561021d57600080fd5b5061016e61022c366004611152565b60006020819052908152604090205481565b34801561024a57600080fd5b5061016e61069b565b34801561025f57600080fd5b5061019c61026e366004611152565b6106b8565b34801561027f57600080fd5b5061013961028e366004610fe8565b610787565b34801561029f57600080fd5b5061016e600081565b3480156102b457600080fd5b506102d9604051806040016040528060058152602001640352e302e360dc1b81525081565b6040516101459190611191565b3480156102f257600080fd5b50600154610306906001600160a01b031681565b6040516001600160a01b039091168152602001610145565b34801561032a57600080fd5b5061019c610339366004611152565b6107bf565b34801561034a57600080fd5b5061019c610359366004610fe8565b6108f9565b34801561036a57600080fd5b5061016e610379366004611152565b6001600160a01b031660009081526020819052604090205490565b3480156103a057600080fd5b5061016e7f65d7a28e3265b37a6474929f336521b332c1681b933f6cb9f3376673440d862a81565b3480156103d457600080fd5b5061016e60008051602061123683398151915281565b60006001600160e01b03198216637965db0b60e01b148061041b57506301ffc9a760e01b6001600160e01b03198316145b92915050565b6000908152600080516020611276833981519152602052604090206001015490565b61044c82610421565b61045581610915565b61045f8383610922565b50505050565b6001600160a01b038116331461048e5760405163334bd91960e11b815260040160405180910390fd5b61049882826109c7565b505050565b6000805160206112368339815191526104b581610915565b816000036104d65760405163162908e360e11b815260040160405180910390fd5b6001600160a01b0383166104fd5760405163162908e360e11b815260040160405180910390fd5b6001600160a01b03841660009081526020819052604090205482111561053657604051631e9acf1760e31b815260040160405180910390fd5b6001600160a01b0384166000908152602081905260408120805484929061055e9084906111da565b9091555061057890506001600160a01b0385168484610a43565b826001600160a01b0316846001600160a01b03167f9def4e2802183d68ce90a6a226a2962b59298616c27165f12c4fbc5c84cdd778846040516105bd91815260200190565b60405180910390a350505050565b60006105d681610915565b816000036105f75760405163162908e360e11b815260040160405180910390fd5b61060c6001600160a01b038416333085610aa2565b6001600160a01b038316600090815260208190526040812080548492906106349084906111ed565b90915550506040518281526001600160a01b038416907f2da466a7b24304f47e87fa2e1e5a81b9831ce54fec19055ce277ca2f39ba42c49060200160405180910390a2505050565b610684610adb565b61068d82610b82565b6106978282610b8d565b5050565b60006106a5610c4f565b5060008051602061125683398151915290565b60006106c381610915565b6001600160a01b0382166106ea5760405163162908e360e11b815260040160405180910390fd5b600180546001600160a01b038481166001600160a01b031983161790925516801561072957610727600080516020611236833981519152826109c7565b505b61074160008051602061123683398151915284610922565b50826001600160a01b0316816001600160a01b03167f8c6eabd1db7fe5a1951a7c78767c0e3633c5352578d15d45f99aa4c4db01c55a60405160405180910390a3505050565b6000918252600080516020611276833981519152602090815260408084206001600160a01b0393909316845291905290205460ff1690565b60006107c9610c98565b805490915060ff600160401b820416159067ffffffffffffffff166000811580156107f15750825b905060008267ffffffffffffffff16600114801561080e5750303b155b90508115801561081c575080155b1561083a5760405163f92ee8a960e01b815260040160405180910390fd5b845467ffffffffffffffff19166001178555831561086457845460ff60401b1916600160401b1785555b61086c610cc1565b610874610cc1565b61087f600087610922565b506108aa7f65d7a28e3265b37a6474929f336521b332c1681b933f6cb9f3376673440d862a87610922565b5083156108f157845460ff60401b19168555604051600181527fc7f505b2f371ae2175ee4913f4499e1f2633a7b5936321eed1cdaeb6115181d29060200160405180910390a15b505050505050565b61090282610421565b61090b81610915565b61045f83836109c7565b61091f8133610cc9565b50565b600060008051602061127683398151915261093d8484610787565b6109bd576000848152602082815260408083206001600160a01b03871684529091529020805460ff191660011790556109733390565b6001600160a01b0316836001600160a01b0316857f2f8788117e7eff1d82e926ec794901d17c78024a50270940304540a733656f0d60405160405180910390a4600191505061041b565b600091505061041b565b60006000805160206112768339815191526109e28484610787565b156109bd576000848152602082815260408083206001600160a01b0387168085529252808320805460ff1916905551339287917ff6391f5c32d9c69d2a47ea670b442974b53935d1edc7fd64eb21e047a839171b9190a4600191505061041b565b6040516001600160a01b0383811660248301526044820183905261049891859182169063a9059cbb906064015b604051602081830303815290604052915060e01b6020820180516001600160e01b038381831617835250505050610d02565b6040516001600160a01b03848116602483015283811660448301526064820183905261045f9186918216906323b872dd90608401610a70565b306001600160a01b037f0000000000000000000000000000000000000000000000000000000000000000161480610b6257507f00000000000000000000000000000000000000000000000000000000000000006001600160a01b0316610b56600080516020611256833981519152546001600160a01b031690565b6001600160a01b031614155b15610b805760405163703e46dd60e11b815260040160405180910390fd5b565b600061069781610915565b816001600160a01b03166352d1902d6040518163ffffffff1660e01b8152600401602060405180830381865afa925050508015610be7575060408051601f3d908101601f19168201909252610be491810190611200565b60015b610c1457604051634c9c8ce360e01b81526001600160a01b03831660048201526024015b60405180910390fd5b6000805160206112568339815191528114610c4557604051632a87526960e21b815260048101829052602401610c0b565b6104988383610d73565b306001600160a01b037f00000000000000000000000000000000000000000000000000000000000000001614610b805760405163703e46dd60e11b815260040160405180910390fd5b6000807ff0c57e16840df040f15088dc2f81fe391c3923bec73e23a9662efc9c229c6a0061041b565b610b80610dc9565b610cd38282610787565b6106975760405163e2517d3f60e01b81526001600160a01b038216600482015260248101839052604401610c0b565b600080602060008451602086016000885af180610d25576040513d6000823e3d81fd5b50506000513d91508115610d3d578060011415610d4a565b6001600160a01b0384163b155b1561045f57604051635274afe760e01b81526001600160a01b0385166004820152602401610c0b565b610d7c82610dee565b6040516001600160a01b038316907fbc7cd75a20ee27fd9adebab32041f755214dbc6bffa90cc0225b39da2e5c2d3b90600090a2805115610dc1576104988282610e53565b610697610ec9565b610dd1610ee8565b610b8057604051631afcd79f60e31b815260040160405180910390fd5b806001600160a01b03163b600003610e2457604051634c9c8ce360e01b81526001600160a01b0382166004820152602401610c0b565b60008051602061125683398151915280546001600160a01b0319166001600160a01b0392909216919091179055565b6060600080846001600160a01b031684604051610e709190611219565b600060405180830381855af49150503d8060008114610eab576040519150601f19603f3d011682016040523d82523d6000602084013e610eb0565b606091505b5091509150610ec0858383610f02565b95945050505050565b3415610b805760405163b398979f60e01b815260040160405180910390fd5b6000610ef2610c98565b54600160401b900460ff16919050565b606082610f1757610f1282610f61565b610f5a565b8151158015610f2e57506001600160a01b0384163b155b15610f5757604051639996b31560e01b81526001600160a01b0385166004820152602401610c0b565b50805b9392505050565b805115610f7057805160208201fd5b60405163d6bda27560e01b815260040160405180910390fd5b600060208284031215610f9b57600080fd5b81356001600160e01b031981168114610f5a57600080fd5b600060208284031215610fc557600080fd5b5035919050565b80356001600160a01b0381168114610fe357600080fd5b919050565b60008060408385031215610ffb57600080fd5b8235915061100b60208401610fcc565b90509250929050565b60008060006060848603121561102957600080fd5b61103284610fcc565b925061104060208501610fcc565b9150604084013590509250925092565b6000806040838503121561106357600080fd5b61106c83610fcc565b946020939093013593505050565b634e487b7160e01b600052604160045260246000fd5b600080604083850312156110a357600080fd5b6110ac83610fcc565b9150602083013567ffffffffffffffff808211156110c957600080fd5b818501915085601f8301126110dd57600080fd5b8135818111156110ef576110ef61107a565b604051601f8201601f19908116603f011681019083821181831017156111175761111761107a565b8160405282815288602084870101111561113057600080fd5b8260208601602083013760006020848301015280955050505050509250929050565b60006020828403121561116457600080fd5b610f5a82610fcc565b60005b83811015611188578181015183820152602001611170565b50506000910152565b60208152600082518060208401526111b081604085016020870161116d565b601f01601f19169190910160400192915050565b634e487b7160e01b600052601160045260246000fd5b8181038181111561041b5761041b6111c4565b8082018082111561041b5761041b6111c4565b60006020828403121561121257600080fd5b5051919050565b6000825161122b81846020870161116d565b919091019291505056fefbd454f36a7e1a388bd6fc3ab10d434aa4578f811acbbcf33afb1c697486313c360894a13ba1a3210667c828492db98dca3e2076cc3735a920a3ca505d382bbc02dd7bc7dec4dceedda775e58dd541e08a116c6c53815c0bd028192f7b626800a264697066735822122032edafee8cded04776ce59ea294e29f5f61a2c8cf5b77052efd5f9a8231ccfba64736f6c63430008180033",
  "linkReferences": {},
  "deployedLinkReferences": {}
}