{
  "_format": "hh-sol-artifact-1",
  "contractName": "SignedRewardDistributor",
  "sourceName": "contracts/SignedRewardDistributor.sol",
  "abi": [
    {
      "inputs": [],
      "stateMutability": "nonpayable",
      "type": "constructor"
    },
    {
      "inputs": [],
      "name": "AccessControlBadConfirmation",
      "type": "error"
    },
    {
      "inputs": [
        {
          "internalType": "address",
          "name": "account",
          "type": "address"
        },
        {
          "internalType": "bytes32",
          "name": "neededRole",
          "type": "bytes32"
        }
      ],
      "name": "AccessControlUnauthorizedAccount",
      "type": "error"
    },
    {
      "inputs": [
        {
          "internalType": "address",
          "name": "target",
          "type": "address"
        }
      ],
      "name": "AddressEmptyCode",
      "type": "error"
    },
    {
      "inputs": [],
      "name": "DeadlineExpired",
      "type": "error"
    },
    {
      "inputs": [],
      "name": "DistributionInactive",
      "type": "error"
    },
    {
      "inputs": [],
      "name": "DistributionNotFound",
      "type": "error"
    },
    {
      "inputs": [],
      "name": "ECDSAInvalidSignature",
      "type": "error"
    },
    {
      "inputs": [
        {
          "internalType": "uint256",
          "name": "length",
          "type": "uint256"
        }
      ],
      "name": "ECDSAInvalidSignatureLength",
      "type": "error"
    },
    {
      "inputs": [
        {
          "internalType": "bytes32",
          "name": "s",
          "type": "bytes32"
        }
      ],
      "name": "ECDSAInvalidSignatureS",
      "type": "error"
    },
    {
      "inputs": [
        {
          "internalType": "address",
          "name": "implementation",
          "type": "address"
        }
      ],
      "name": "ERC1967InvalidImplementation",
      "type": "error"
    },
    {
      "inputs": [],
      "name": "ERC1967NonPayable",
      "type": "error"
    },
    {
      "inputs": [],
      "name": "EnforcedPause",
      "type": "error"
    },
    {
      "inputs": [],
      "name": "ExpectedPause",
      "type": "error"
    },
    {
      "inputs": [],
      "name": "FailedCall",
      "type": "error"
    },
    {
      "inputs": [],
      "name": "InsufficientRemaining",
      "type": "error"
    },
    {
      "inputs": [],
      "name": "InvalidAmount",
      "type": "error"
    },
    {
      "inputs": [],
      "name": "InvalidDeadline",
      "type": "error"
    },
    {
      "inputs": [],
      "name": "InvalidInitialization",
      "type": "error"
    },
    {
      "inputs": [],
      "name": "InvalidSignature",
      "type": "error"
    },
    {
      "inputs": [],
      "name": "NoAmountToClaim",
      "type": "error"
    },
    {
      "inputs": [],
      "name": "NotInitializing",
      "type": "error"
    },
    {
      "inputs": [],
      "name": "ReentrancyGuardReentrantCall",
      "type": "error"
    },
    {
      "inputs": [],
      "name": "UUPSUnauthorizedCallContext",
      "type": "error"
    },
    {
      "inputs": [
        {
          "internalType": "bytes32",
          "name": "slot",
          "type": "bytes32"
        }
      ],
      "name": "UUPSUnsupportedProxiableUUID",
      "type": "error"
    },
    {
      "inputs": [],
      "name": "UnauthorizedSigner",
      "type": "error"
    },
    {
      "anonymous": false,
      "inputs": [
        {
          "indexed": true,
          "internalType": "uint256",
          "name": "id",
          "type": "uint256"
        },
        {
          "indexed": true,
          "internalType": "address",
          "name": "account",
          "type": "address"
        },
        {
          "indexed": false,
          "internalType": "uint256",
          "name": "amount",
          "type": "uint256"
        },
        {
          "indexed": false,
          "internalType": "uint256",
          "name": "newClaimedTotal",
          "type": "uint256"
        }
      ],
      "name": "Claimed",
      "type": "event"
    },
    {
      "anonymous": false,
      "inputs": [
        {
          "indexed": true,
          "internalType": "uint256",
          "name": "id",
          "type": "uint256"
        },
        {
          "indexed": true,
          "internalType": "address",
          "name": "token",
          "type": "address"
        },
        {
          "indexed": false,
          "internalType": "uint256",
          "name": "total",
          "type": "uint256"
        },
        {
          "indexed": false,
          "internalType": "uint256",
          "name": "snapshotBlock",
          "type": "uint256"
        },
        {
          "indexed": false,
          "internalType": "uint256",
          "name": "deadline",
          "type": "uint256"
        }
      ],
      "name": "DistributionCreated",
      "type": "event"
    },
    {
      "anonymous": false,
      "inputs": [
        {
          "indexed": false,
          "internalType": "uint64",
          "name": "version",
          "type": "uint64"
        }
      ],
      "name": "Initialized",
      "type": "event"
    },
    {
      "anonymous": false,
      "inputs": [
        {
          "indexed": false,
          "internalType": "address",
          "name": "account",
          "type": "address"
        }
      ],
      "name": "Paused",
      "type": "event"
    },
    {
      "anonymous": false,
      "inputs": [
        {
          "indexed": true,
          "internalType": "bytes32",
          "name": "role",
          "type": "bytes32"
        },
        {
          "indexed": true,
          "internalType": "bytes32",
          "name": "previousAdminRole",
          "type": "bytes32"
        },
        {
          "indexed": true,
          "internalType": "bytes32",
          "name": "newAdminRole",
          "type": "bytes32"
        }
      ],
      "name": "RoleAdminChanged",
      "type": "event"
    },
    {
      "anonymous": false,
      "inputs": [
        {
          "indexed": true,
          "internalType": "bytes32",
          "name": "role",
          "type": "bytes32"
        },
        {
          "indexed": true,
          "internalType": "address",
          "name": "account",
          "type": "address"
        },
        {
          "indexed": true,
          "internalType": "address",
          "name": "sender",
          "type": "address"
        }
      ],
      "name": "RoleGranted",
      "type": "event"
    },
    {
      "anonymous": false,
      "inputs": [
        {
          "indexed": true,
          "internalType": "bytes32",
          "name": "role",
          "type": "bytes32"
        },
        {
          "indexed": true,
          "internalType": "address",
          "name": "account",
          "type": "address"
        },
        {
          "indexed": true,
          "internalType": "address",
          "name": "sender",
          "type": "address"
        }
      ],
      "name": "RoleRevoked",
      "type": "event"
    },
    {
      "anonymous": false,
      "inputs": [
        {
          "indexed": false,
          "internalType": "address",
          "name": "account",
          "type": "address"
        }
      ],
      "name": "Unpaused",
      "type": "event"
    },
    {
      "anonymous": false,
      "inputs": [
        {
          "indexed": true,
          "internalType": "address",
          "name": "implementation",
          "type": "address"
        }
      ],
      "name": "Upgraded",
      "type": "event"
    },
    {
      "inputs": [],
      "name": "DEFAULT_ADMIN_ROLE",
      "outputs": [
        {
          "internalType": "bytes32",
          "name": "",
          "type": "bytes32"
        }
      ],
      "stateMutability": "view",
      "type": "function"
    },
    {
      "inputs": [],
      "name": "DOMAIN_SEPARATOR",
      "outputs": [
        {
          "internalType": "bytes32",
          "name": "",
          "type": "bytes32"
        }
      ],
      "stateMutability": "view",
      "type": "function"
    },
    {
      "inputs": [],
      "name": "PAUSER_ROLE",
      "outputs": [
        {
          "internalType": "bytes32",
          "name": "",
          "type": "bytes32"
        }
      ],
      "stateMutability": "view",
      "type": "function"
    },
    {
      "inputs": [],
      "name": "SIGNER_ROLE",
      "outputs": [
        {
          "internalType": "bytes32",
          "name": "",
          "type": "bytes32"
        }
      ],
      "stateMutability": "view",
      "type": "function"
    },
    {
      "inputs": [],
      "name": "UPGRADE_INTERFACE_VERSION",
      "outputs": [
        {
          "internalType": "string",
          "name": "",
          "type": "string"
        }
      ],
      "stateMutability": "view",
      "type": "function"
    },
    {
      "inputs": [
        {
          "internalType": "uint256",
          "name": "distributionId",
          "type": "uint256"
        },
        {
          "internalType": "bytes32",
          "name": "postId",
          "type": "bytes32"
        },
        {
          "internalType": "address",
          "name": "account",
          "type": "address"
        },
        {
          "internalType": "uint256",
          "name": "authorizedAmount",
          "type": "uint256"
        },
        {
          "internalType": "uint256",
          "name": "deadline",
          "type": "uint256"
        },
        {
          "internalType": "bytes",
          "name": "signature",
          "type": "bytes"
        }
      ],
      "name": "claim",
      "outputs": [],
      "stateMutability": "nonpayable",
      "type": "function"
    },
    {
      "inputs": [
        {
          "internalType": "uint256",
          "name": "",
          "type": "uint256"
        },
        {
          "internalType": "address",
          "name": "",
          "type": "address"
        }
      ],
      "name": "claimed",
      "outputs": [
        {
          "internalType": "uint256",
          "name": "",
          "type": "uint256"
        }
      ],
      "stateMutability": "view",
      "type": "function"
    },
    {
      "inputs": [
        {
          "internalType": "uint256",
          "name": "id",
          "type": "uint256"
        },
        {
          "internalType": "address",
          "name": "token",
          "type": "address"
        },
        {
          "internalType": "uint256",
          "name": "total",
          "type": "uint256"
        },
        {
          "internalType": "uint256",
          "name": "snapshotBlock",
          "type": "uint256"
        },
        {
          "internalType": "uint256",
          "name": "deadline",
          "type": "uint256"
        }
      ],
      "name": "createDistribution",
      "outputs": [],
      "stateMutability": "nonpayable",
      "type": "function"
    },
    {
      "inputs": [
        {
          "internalType": "uint256",
          "name": "",
          "type": "uint256"
        }
      ],
      "name": "dists",
      "outputs": [
        {
          "internalType": "address",
          "name": "token",
          "type": "address"
        },
        {
          "internalType": "uint256",
          "name": "total",
          "type": "uint256"
        },
        {
          "internalType": "uint256",
          "name": "remaining",
          "type": "uint256"
        },
        {
          "internalType": "uint256",
          "name": "snapshotBlock",
          "type": "uint256"
        },
        {
          "internalType": "uint256",
          "name": "deadline",
          "type": "uint256"
        },
        {
          "internalType": "bool",
          "name": "active",
          "type": "bool"
        }
      ],
      "stateMutability": "view",
      "type": "function"
    },
    {
      "inputs": [
        {
          "internalType": "uint256",
          "name": "id",
          "type": "uint256"
        },
        {
          "internalType": "address",
          "name": "account",
          "type": "address"
        }
      ],
      "name": "getClaimed",
      "outputs": [
        {
          "internalType": "uint256",
          "name": "",
          "type": "uint256"
        }
      ],
      "stateMutability": "view",
      "type": "function"
    },
    {
      "inputs": [
        {
          "internalType": "uint256",
          "name": "id",
          "type": "uint256"
        }
      ],
      "name": "getDistribution",
      "outputs": [
        {
          "components": [
            {
              "internalType": "address",
              "name": "token",
              "type": "address"
            },
            {
              "internalType": "uint256",
              "name": "total",
              "type": "uint256"
            },
            {
              "internalType": "uint256",
              "name": "remaining",
              "type": "uint256"
            },
            {
              "internalType": "uint256",
              "name": "snapshotBlock",
              "type": "uint256"
            },
            {
              "internalType": "uint256",
              "name": "deadline",
              "type": "uint256"
            },
            {
              "internalType": "bool",
              "name": "active",
              "type": "bool"
            }
          ],
          "internalType": "struct SignedRewardDistributor.Distribution",
          "name": "",
          "type": "tuple"
        }
      ],
      "stateMutability": "view",
      "type": "function"
    },
    {
      "inputs": [
        {
          "internalType": "bytes32",
          "name": "role",
          "type": "bytes32"
        }
      ],
      "name": "getRoleAdmin",
      "outputs": [
        {
          "internalType": "bytes32",
          "name": "",
          "type": "bytes32"
        }
      ],
      "stateMutability": "view",
      "type": "function"
    },
    {
      "inputs": [
        {
          "internalType": "bytes32",
          "name": "role",
          "type": "bytes32"
        },
        {
          "internalType": "address",
          "name": "account",
          "type": "address"
        }
      ],
      "name": "grantRole",
      "outputs": [],
      "stateMutability": "nonpayable",
      "type": "function"
    },
    {
      "inputs": [
        {
          "internalType": "bytes32",
          "name": "role",
          "type": "bytes32"
        },
        {
          "internalType": "address",
          "name": "account",
          "type": "address"
        }
      ],
      "name": "hasRole",
      "outputs": [
        {
          "internalType": "bool",
          "name": "",
          "type": "bool"
        }
      ],
      "stateMutability": "view",
      "type": "function"
    },
    {
      "inputs": [
        {
          "internalType": "address",
          "name": "_rewardPool",
          "type": "address"
        },
        {
          "internalType": "address",
          "name": "admin",
          "type": "address"
        },
        {
          "internalType": "address",
          "name": "signer",
          "type": "address"
        }
      ],
      "name": "initialize",
      "outputs": [],
      "stateMutability": "nonpayable",
      "type": "function"
    },
    {
      "inputs": [],
      "name": "pause",
      "outputs": [],
      "stateMutability": "nonpayable",
      "type": "function"
    },
    {
      "inputs": [],
      "name": "paused",
      "outputs": [
        {
          "internalType": "bool",
          "name": "",
          "type": "bool"
        }
      ],
      "stateMutability": "view",
      "type": "function"
    },
    {
      "inputs": [
        {
          "internalType": "address",
          "name": "token",
          "type": "address"
        },
        {
          "internalType": "address",
          "name": "to",
          "type": "address"
        },
        {
          "internalType": "uint256",
          "name": "amount",
          "type": "uint256"
        }
      ],
      "name": "payTo",
      "outputs": [],
      "stateMutability": "nonpayable",
      "type": "function"
    },
    {
      "inputs": [],
      "name": "proxiableUUID",
      "outputs": [
        {
          "internalType": "bytes32",
          "name": "",
          "type": "bytes32"
        }
      ],
      "stateMutability": "view",
      "type": "function"
    },
    {
      "inputs": [
        {
          "internalType": "bytes32",
          "name": "role",
          "type": "bytes32"
        },
        {
          "internalType": "address",
          "name": "callerConfirmation",
          "type": "address"
        }
      ],
      "name": "renounceRole",
      "outputs": [],
      "stateMutability": "nonpayable",
      "type": "function"
    },
    {
      "inputs": [
        {
          "internalType": "bytes32",
          "name": "role",
          "type": "bytes32"
        },
        {
          "internalType": "address",
          "name": "account",
          "type": "address"
        }
      ],
      "name": "revokeRole",
      "outputs": [],
      "stateMutability": "nonpayable",
      "type": "function"
    },
    {
      "inputs": [],
      "name": "rewardPool",
      "outputs": [
        {
          "internalType": "contract RewardPool",
          "name": "",
          "type": "address"
        }
      ],
      "stateMutability": "view",
      "type": "function"
    },
    {
      "inputs": [
        {
          "internalType": "bytes4",
          "name": "interfaceId",
          "type": "bytes4"
        }
      ],
      "name": "supportsInterface",
      "outputs": [
        {
          "internalType": "bool",
          "name": "",
          "type": "bool"
        }
      ],
      "stateMutability": "view",
      "type": "function"
    },
    {
      "inputs": [
        {
          "internalType": "uint256",
          "name": "id",
          "type": "uint256"
        },
        {
          "internalType": "address",
          "name": "to",
          "type": "address"
        }
      ],
      "name": "sweepRemainder",
      "outputs": [],
      "stateMutability": "nonpayable",
      "type": "function"
    },
    {
      "inputs": [],
      "name": "unpause",
      "outputs": [],
      "stateMutability": "nonpayable",
      "type": "function"
    },
    {
      "inputs": [
        {
          "internalType": "address",
          "name": "newImplementation",
          "type": "address"
        },
        {
          "internalType": "bytes",
          "name": "data",
          "type": "bytes"
        }
      ],
      "name": "upgradeToAndCall",
      "outputs": [],
      "stateMutability": "payable",
      "type": "function"
    }
  ],
  "bytecode": "0x60a06040523060805234801561001457600080fd5b5061001d610022565b6100d4565b7ff0c57e16840df040f15088dc2f81fe391c3923bec73e23a9662efc9c229c6a00805468010000000000000000900460ff16156100725760405163f92ee8a960e01b815260040160405180910390fd5b80546001600160401b03908116146100d15780546001600160401b0319166001600160401b0390811782556040519081527fc7f505b2f371ae2175ee4913f4499e1f2633a7b5936321eed1cdaeb6115181d29060200160405180910390a15b50565b608051611e456100fd60003960008181611297015281816112c0015261140b0152611e456000f3fe6080604052600436106101815760003560e01c80638456cb59116100d1578063c0c53b8b1161008a578063dba2844b11610064578063dba2844b146104e1578063dc8999b414610501578063e2d80d1514610599578063e63ab1e9146105dc57600080fd5b8063c0c53b8b14610481578063c32dcd8d146104a1578063d547741f146104c157600080fd5b80638456cb59146103a557806391d14854146103ba57806395130a8b146103da578063a1ebf35d146103fa578063a217fddf1461042e578063ad3cb1cc1461044357600080fd5b80633b345a871161013e5780634f1ef286116101185780634f1ef2861461032057806352d1902d146103335780635c975abb1461034857806366666aa91461036d57600080fd5b80633b345a87146102795780633f4ba83a146102eb5780634026cf231461030057600080fd5b806301ffc9a714610186578063120aa877146101bb578063248a9ca3146102015780632f2ff15d146102215780633644e5151461024357806336568abe14610259575b600080fd5b34801561019257600080fd5b506101a66101a13660046119fa565b6105fe565b60405190151581526020015b60405180910390f35b3480156101c757600080fd5b506101f36101d6366004611a40565b600360209081526000928352604080842090915290825290205481565b6040519081526020016101b2565b34801561020d57600080fd5b506101f361021c366004611a6c565b610635565b34801561022d57600080fd5b5061024161023c366004611a40565b610657565b005b34801561024f57600080fd5b506101f360005481565b34801561026557600080fd5b50610241610274366004611a40565b610679565b34801561028557600080fd5b50610299610294366004611a6c565b6106b1565b6040516101b2919081516001600160a01b031681526020808301519082015260408083015190820152606080830151908201526080808301519082015260a09182015115159181019190915260c00190565b3480156102f757600080fd5b50610241610759565b34801561030c57600080fd5b5061024161031b366004611a85565b61077c565b61024161032e366004611ad7565b6107fb565b34801561033f57600080fd5b506101f361081a565b34801561035457600080fd5b50600080516020611df08339815191525460ff166101a6565b34801561037957600080fd5b5060015461038d906001600160a01b031681565b6040516001600160a01b0390911681526020016101b2565b3480156103b157600080fd5b50610241610837565b3480156103c657600080fd5b506101a66103d5366004611a40565b610857565b3480156103e657600080fd5b506102416103f5366004611a40565b61088f565b34801561040657600080fd5b506101f37fe2f4eaae4a9751e85a3e4a7b9587827a877f29914755229b07a7b2da98285f7081565b34801561043a57600080fd5b506101f3600081565b34801561044f57600080fd5b50610474604051806040016040528060058152602001640352e302e360dc1b81525081565b6040516101b29190611bbd565b34801561048d57600080fd5b5061024161049c366004611bf0565b610928565b3480156104ad57600080fd5b506102416104bc366004611c33565b610b8b565b3480156104cd57600080fd5b506102416104dc366004611a40565b610f1c565b3480156104ed57600080fd5b506102416104fc366004611cdd565b610f38565b34801561050d57600080fd5b5061056061051c366004611a6c565b60026020819052600091825260409091208054600182015492820154600383015460048401546005909401546001600160a01b039093169493919290919060ff1686565b604080516001600160a01b03909716875260208701959095529385019290925260608401526080830152151560a082015260c0016101b2565b3480156105a557600080fd5b506101f36105b4366004611a40565b60009182526003602090815260408084206001600160a01b0393909316845291905290205490565b3480156105e857600080fd5b506101f3600080516020611db083398151915281565b60006001600160e01b03198216637965db0b60e01b148061062f57506301ffc9a760e01b6001600160e01b03198316145b92915050565b6000908152600080516020611dd0833981519152602052604090206001015490565b61066082610635565b61066981611101565b610673838361110b565b50505050565b6001600160a01b03811633146106a25760405163334bd91960e11b815260040160405180910390fd5b6106ac82826111b0565b505050565b6106f56040518060c0016040528060006001600160a01b03168152602001600081526020016000815260200160008152602001600081526020016000151581525090565b50600090815260026020818152604092839020835160c08101855281546001600160a01b03168152600182015492810192909252918201549281019290925260038101546060830152600481015460808301526005015460ff16151560a082015290565b600080516020611db083398151915261077181611101565b61077961122c565b50565b600061078781611101565b600154604051634026cf2360e01b81526001600160a01b03868116600483015285811660248301526044820185905290911690634026cf2390606401600060405180830381600087803b1580156107dd57600080fd5b505af11580156107f1573d6000803e3d6000fd5b5050505050505050565b61080361128c565b61080c82611333565b610816828261133e565b5050565b6000610824611400565b50600080516020611d9083398151915290565b600080516020611db083398151915261084f81611101565b610779611449565b6000918252600080516020611dd0833981519152602090815260408084206001600160a01b0393909316845291905290205460ff1690565b600061089a81611101565b6000838152600260205260409020600581015460ff166108cd576040516392ad298360e01b815260040160405180910390fd5b806004015442116108f157604051631ab7da6b60e01b815260040160405180910390fd5b6001600160a01b0383166109185760405163162908e360e11b815260040160405180910390fd5b600501805460ff19169055505050565b6000610932611492565b805490915060ff600160401b820416159067ffffffffffffffff1660008115801561095a5750825b905060008267ffffffffffffffff1660011480156109775750303b155b905081158015610985575080155b156109a35760405163f92ee8a960e01b815260040160405180910390fd5b845467ffffffffffffffff1916600117855583156109cd57845460ff60401b1916600160401b1785555b6109d56114bb565b6109dd6114bb565b6109e56114c3565b6109ed6114bb565b600180546001600160a01b0319166001600160a01b038a16179055610a1360008861110b565b50610a2c600080516020611db08339815191528861110b565b50610a577fe2f4eaae4a9751e85a3e4a7b9587827a877f29914755229b07a7b2da98285f708761110b565b50604080518082018252601781527f5369676e65645265776172644469737472696275746f720000000000000000006020918201528151808301835260018152603160f81b9082015281517f8b73c3c69bb8fe3d512ecc4cf759cc79239f7b179b0ffacaa9a75d522b39400f818301527fd7c30a1dd427de7b433c1d4ec89d2716d9114fa9a8cd3ead6f5b72e370ac2344818401527fc89efdaa54c0f20c7adf612882df0950f5a951637e0307cdcb4c672f298b8bc660608201524660808201523060a0808301919091528351808303909101815260c0909101909252815191012060005583156107f157845460ff60401b19168555604051600181527fc7f505b2f371ae2175ee4913f4499e1f2633a7b5936321eed1cdaeb6115181d29060200160405180910390a15050505050505050565b610b936114d3565b610b9b61151d565b6001600160a01b038516610bc25760405163162908e360e11b815260040160405180910390fd5b428311610be257604051631ab7da6b60e01b815260040160405180910390fd5b6000878152600260205260409020600581015460ff16610c15576040516392ad298360e01b815260040160405180910390fd5b8060040154841115610c3a57604051631ab7da6b60e01b815260040160405180910390fd5b604080517fe3f1b81f38aed56d9d50835cd8510e70aff243bef2f53673805bc198203518a96020808301919091528183018b9052606082018a90526001600160a01b038916608083015260a0820188905260c08083018890528351808403909101815260e0830190935282519201919091206000805461190160f01b61010085015261010284015261012283018290529091610142016040516020818303038152906040528051906020012090506000610d2c86868080601f016020809104026020016040519081016040528093929190818152602001838380828437600092019190915250869392505061154e9050565b9050610d587fe2f4eaae4a9751e85a3e4a7b9587827a877f29914755229b07a7b2da98285f7082610857565b610d7557604051636518c33d60e11b815260040160405180910390fd5b60008b81526003602090815260408083206001600160a01b038d168452909152902054808911610db75760405162fc559f60e81b815260040160405180910390fd5b6000610dc3828b611d23565b90508086600201541015610dea576040516304fce4c160e21b815260040160405180910390fd5b60008d81526003602090815260408083206001600160a01b038f16845290915281208b9055600287018054839290610e23908490611d23565b90915550506001548654604051634026cf2360e01b81526001600160a01b0391821660048201528d8216602482015260448101849052911690634026cf2390606401600060405180830381600087803b158015610e7f57600080fd5b505af1158015610e93573d6000803e3d6000fd5b505050508a6001600160a01b03168d7fd9cb1e2714d65a111c0f20f060176ad657496bd47a3de04ec7c3d4ca232112ac838d604051610edc929190918252602082015260400190565b60405180910390a3505050505050610f1360017f9b779b17422d0df92223018b32b4d1fa46e071723d6817e2486d003becc55f0055565b50505050505050565b610f2582610635565b610f2e81611101565b61067383836111b0565b6000610f4381611101565b6001600160a01b038516610f6a5760405163162908e360e11b815260040160405180910390fd5b83600003610f8b5760405163162908e360e11b815260040160405180910390fd5b428211610fab57604051631da7447960e21b815260040160405180910390fd5b60008681526002602052604090206005015460ff1615610fde57604051633a35c2f960e01b815260040160405180910390fd5b6040518060c00160405280866001600160a01b03168152602001858152602001858152602001848152602001838152602001600115158152506002600088815260200190815260200160002060008201518160000160006101000a8154816001600160a01b0302191690836001600160a01b031602179055506020820151816001015560408201518160020155606082015181600301556080820151816004015560a08201518160050160006101000a81548160ff021916908315150217905550905050846001600160a01b0316867fe27e5a775a199e96de84d4ca626ac186c4bbc03163b3d525ea3ad4098b1f25d58686866040516110f1939291909283526020830191909152604082015260600190565b60405180910390a3505050505050565b610779813361159e565b6000600080516020611dd08339815191526111268484610857565b6111a6576000848152602082815260408083206001600160a01b03871684529091529020805460ff1916600117905561115c3390565b6001600160a01b0316836001600160a01b0316857f2f8788117e7eff1d82e926ec794901d17c78024a50270940304540a733656f0d60405160405180910390a4600191505061062f565b600091505061062f565b6000600080516020611dd08339815191526111cb8484610857565b156111a6576000848152602082815260408083206001600160a01b0387168085529252808320805460ff1916905551339287917ff6391f5c32d9c69d2a47ea670b442974b53935d1edc7fd64eb21e047a839171b9190a4600191505061062f565b6112346115d7565b600080516020611df0833981519152805460ff191681557f5db9ee0a495bf2e6ff9c91a7834c1ba4fdd244a5e8aa4e537bd38aeae4b073aa335b6040516001600160a01b03909116815260200160405180910390a150565b306001600160a01b037f000000000000000000000000000000000000000000000000000000000000000016148061131357507f00000000000000000000000000000000000000000000000000000000000000006001600160a01b0316611307600080516020611d90833981519152546001600160a01b031690565b6001600160a01b031614155b156113315760405163703e46dd60e11b815260040160405180910390fd5b565b600061081681611101565b816001600160a01b03166352d1902d6040518163ffffffff1660e01b8152600401602060405180830381865afa925050508015611398575060408051601f3d908101601f1916820190925261139591810190611d44565b60015b6113c557604051634c9c8ce360e01b81526001600160a01b03831660048201526024015b60405180910390fd5b600080516020611d9083398151915281146113f657604051632a87526960e21b8152600481018290526024016113bc565b6106ac8383611607565b306001600160a01b037f000000000000000000000000000000000000000000000000000000000000000016146113315760405163703e46dd60e11b815260040160405180910390fd5b61145161151d565b600080516020611df0833981519152805460ff191660011781557f62e78cea01bee320cd4e420270b5ea74000d11b0c9f74754ebdbfc544b05a2583361126e565b6000807ff0c57e16840df040f15088dc2f81fe391c3923bec73e23a9662efc9c229c6a0061062f565b61133161165d565b6114cb61165d565b611331611682565b7f9b779b17422d0df92223018b32b4d1fa46e071723d6817e2486d003becc55f0080546001190161151757604051633ee5aeb560e01b815260040160405180910390fd5b60029055565b600080516020611df08339815191525460ff16156113315760405163d93c066560e01b815260040160405180910390fd5b60008060008061155e868661168a565b92509250925061156e82826116d7565b5090949350505050565b60017f9b779b17422d0df92223018b32b4d1fa46e071723d6817e2486d003becc55f0055565b6115a88282610857565b6108165760405163e2517d3f60e01b81526001600160a01b0382166004820152602481018390526044016113bc565b600080516020611df08339815191525460ff1661133157604051638dfc202b60e01b815260040160405180910390fd5b61161082611790565b6040516001600160a01b038316907fbc7cd75a20ee27fd9adebab32041f755214dbc6bffa90cc0225b39da2e5c2d3b90600090a2805115611655576106ac82826117f5565b61081661186b565b61166561188a565b61133157604051631afcd79f60e31b815260040160405180910390fd5b61157861165d565b600080600083516041036116c45760208401516040850151606086015160001a6116b6888285856118a4565b9550955095505050506116d0565b50508151600091506002905b9250925092565b60008260038111156116eb576116eb611d5d565b036116f4575050565b600182600381111561170857611708611d5d565b036117265760405163f645eedf60e01b815260040160405180910390fd5b600282600381111561173a5761173a611d5d565b0361175b5760405163fce698f760e01b8152600481018290526024016113bc565b600382600381111561176f5761176f611d5d565b03610816576040516335e2f38360e21b8152600481018290526024016113bc565b806001600160a01b03163b6000036117c657604051634c9c8ce360e01b81526001600160a01b03821660048201526024016113bc565b600080516020611d9083398151915280546001600160a01b0319166001600160a01b0392909216919091179055565b6060600080846001600160a01b0316846040516118129190611d73565b600060405180830381855af49150503d806000811461184d576040519150601f19603f3d011682016040523d82523d6000602084013e611852565b606091505b5091509150611862858383611973565b95945050505050565b34156113315760405163b398979f60e01b815260040160405180910390fd5b6000611894611492565b54600160401b900460ff16919050565b600080807f7fffffffffffffffffffffffffffffff5d576e7357a4501ddfe92f46681b20a08411156118df5750600091506003905082611969565b604080516000808252602082018084528a905260ff891692820192909252606081018790526080810186905260019060a0016020604051602081039080840390855afa158015611933573d6000803e3d6000fd5b5050604051601f1901519150506001600160a01b03811661195f57506000925060019150829050611969565b9250600091508190505b9450945094915050565b60608261198857611983826119d2565b6119cb565b815115801561199f57506001600160a01b0384163b155b156119c857604051639996b31560e01b81526001600160a01b03851660048201526024016113bc565b50805b9392505050565b8051156119e157805160208201fd5b60405163d6bda27560e01b815260040160405180910390fd5b600060208284031215611a0c57600080fd5b81356001600160e01b0319811681146119cb57600080fd5b80356001600160a01b0381168114611a3b57600080fd5b919050565b60008060408385031215611a5357600080fd5b82359150611a6360208401611a24565b90509250929050565b600060208284031215611a7e57600080fd5b5035919050565b600080600060608486031215611a9a57600080fd5b611aa384611a24565b9250611ab160208501611a24565b9150604084013590509250925092565b634e487b7160e01b600052604160045260246000fd5b60008060408385031215611aea57600080fd5b611af383611a24565b9150602083013567ffffffffffffffff80821115611b1057600080fd5b818501915085601f830112611b2457600080fd5b813581811115611b3657611b36611ac1565b604051601f8201601f19908116603f01168101908382118183101715611b5e57611b5e611ac1565b81604052828152886020848701011115611b7757600080fd5b8260208601602083013760006020848301015280955050505050509250929050565b60005b83811015611bb4578181015183820152602001611b9c565b50506000910152565b6020815260008251806020840152611bdc816040850160208701611b99565b601f01601f19169190910160400192915050565b600080600060608486031215611c0557600080fd5b611c0e84611a24565b9250611c1c60208501611a24565b9150611c2a60408501611a24565b90509250925092565b600080600080600080600060c0888a031215611c4e57600080fd5b8735965060208801359550611c6560408901611a24565b9450606088013593506080880135925060a088013567ffffffffffffffff80821115611c9057600080fd5b818a0191508a601f830112611ca457600080fd5b813581811115611cb357600080fd5b8b6020828501011115611cc557600080fd5b60208301945080935050505092959891949750929550565b600080600080600060a08688031215611cf557600080fd5b85359450611d0560208701611a24565b94979496505050506040830135926060810135926080909101359150565b8181038181111561062f57634e487b7160e01b600052601160045260246000fd5b600060208284031215611d5657600080fd5b5051919050565b634e487b7160e01b600052602160045260246000fd5b60008251611d85818460208701611b99565b919091019291505056fe360894a13ba1a3210667c828492db98dca3e2076cc3735a920a3ca505d382bbc65d7a28e3265b37a6474929f336521b332c1681b933f6cb9f3376673440d862a02dd7bc7dec4dceedda775e58dd541e08a116c6c53815c0bd028192f7b626800cd5ed15c6e187e77e9aee88184c21f4f2182ab5827cb3b7e07fbedcd63f03300a26469706673582212203c2d75393cde4a3cfffdafe2d4050a7bf17ba031740960137f181359b35a933264736f6c63430008180033",
  "linkReferences": {},
  "deployedLinkReferences": {}
}